:020000040000FA
:060000009DEF02F012006A
:0600080004EF08F01200F5
:060018000CEF08F01200DD
:06002A0001005C0500006E
:08003000600000004600000022
:08003800040120511F0B010817
:1000400001E065D0245101E062D0060E215D22E17D
:100050002351230A1EE0010A11E0030A01E01AD02D
:100060000001A7050AE10001340EB76F010EB86F59
:10007000090EBA6FBB6BC00EB96F0CD00001B10E88
:10008000B76F010EB86F1C0EBA6FBB6BC00EB96FA5
:1000900001D000D004012051600BE842E842E84260
:1000A000E842E842010801E032D021510B0A29E080
:1000B000080A1CE0090A14E0080A07E00B0A04E039
:1000C000080A01E024D023D022D00001DE0EB76F51
:1000D000000EB86F010EBA6FBB6BC10EB96F17D0AF
:1000E0000001800EB96F23C4DEF011D00001DF0ED5
:1000F000B76F000EB86F010EBA6FBB6B810EB96F90
:1001000006D00001800EB96F22C4DFF000D01200CB
:100110001201000200000008D8043F0002000102A2
:10012000000109022900010100C032090400000297
:1001300003000000092111010001221C00070581B4
:1001400003400001070501034000010403090434D2
:10015000034D006900630072006F0063006800696E
:10016000007000200054006500630068006E006F9E
:10017000006C006F0067007900200049006E00638A
:10018000002E002E03530069006D0070006C0065A6
:10019000002000480049004400200044006500762B
:1001A000006900630065002000440065006D006F79
:1001B000000600FF0901A101190129401501254090
:1001C000750895408100190129409100C022014B1A
:0501D000014F01830155
:0B01D500555354432C41444320636FFA
:1001E0006E74726F6C6C65722C3230313400446501
:1001F00076696365207374617475732072657365C5
:100200007421005468697320636F6D6D616E6420A2
:10021000646F6573206E6F742070726F76696465A9
:1002200020617420746869732074696D65210049C8
:100230004F20706F727420636F6E74726F6C2063E6
:100240006F6D706C65746521002D3130302C20434A
:100250006F6D6D616E64206572726F72002A545307
:10026000543F0A002A4F50433F0A002A4553450A8B
:10027000002A5253540A002A49444E3F0A002A4396
:040280004C530A00D1
:0C0284002A0EF66E000EF76E000EF86EEB
:1002900000010900F550D96F0900F550DA6F03E14C
:1002A000D96701D03DD00900F550D46F0900F55051
:1002B000D56F0900F550D66F09000900F550E96EB9
:1002C0000900F550EA6E090009000900F550D76FE2
:1002D0000900F550D86F09000900F6CFDBF0F7CF21
:1002E000DCF0F8CFDDF0D4C0F6FFD5C0F7FFD6C004
:1002F000F8FF0001D75302E1D85307E00900F55099
:10030000EE6ED707F8E2D807F9D7DBC0F6FFDCC0FE
:10031000F7FFDDC0F8FF0001D907000EDA5BBFD799
:020320001200C9
:0E032200434F4E463A52454749000000000046
:1003300000434F4E463A564F4C543A444300000057
:100340004F5554503A434F555000000000000052A2
:100350004541443A52454749000000000000434FE0
:100360004E463A5443413634323400000000000017
:10037000000000000000000000000000000000007D
:10038000000000000000000000000000000000006D
:10039000000000000000000000000000000000005D
:1003A000000000000000000000000000000000004D
:0803B000000000000000000045
:0803B800FE0EE3CFE9FFFF0E8A
:1003C000E3CFEAFFE9CFF3FFEACFF4FFFB0EE35000
:1003D00003E1FC0EE35009E0FB0EE30602E2FC0E33
:1003E000E306FD0EE350EE6EF1D71200FB0EE3CFF5
:1003F000F6FFFC0EE3CFF7FFFD0EE3CFF8FFFE0E96
:10040000E3CFE9FFFF0EE3CFEAFF0900F550EF5C11
:1004100002E1EE66FAD71200FB0EE3CFF6FFFC0E08
:10042000E3CFF7FFFD0EE3CFF8FFFE0EE3CFE9FFCA
:10043000FF0EE3CFEAFFE9CFF3FFEACFF4FF0900B5
:0A044000F5CFEFFFEE66FBD71200C8
:06044A00D9CFE6FFDACF76
:10045000E6FFE1CFD9FFE2CFDAFF3F0EC716C66A4B
:10046000FD0EDB50C612FB0EDB50C712FC0EDB503C
:10047000030A09E0010A04E0020A06E1C78C04D07D
:10048000C78CC68801D0C688FD0EDB50050A03E084
:10049000010A04E1928A9382C79E01D09392949EAE
:1004A0009380C68AE552E5CFDAFFE7CFD9FF120085
:1004B00009C013F008C012F008500D02F4CF07F085
:1004C000F3CF06F009500E02F4CF09F0F3CF08F095
:1004D0000D02F3500726F4500822E86A0922125050
:1004E0000E02F3500726F4500822E86A09220EAEE5
:1004F0007EEF02F01250085E1350095A13AE000C42
:0A0500000D50085E0E50095A000C61
:06050A00D9CFE6FFDACFB5
:10051000E6FFE1CFD9FFE2CFDAFFFD0EDB50C96E77
:10052000C6AE02D0FF0E03D0C7A0FED7000EE55224
:0A053000E5CFDAFFE7CFD9FF120094
:06053A0013EE00F023EEB9
:1005400000F0F86A019C42EC01F07EEC0DF0FDD762
:02055000120097
:0A055200C96AC7A0FED7C950120005
:04055C00000000009B
:10056000000000000000000000000000000000008B
:10057000000000000000000000000000000000007B
:10058000000000000000000000000000000000006B
:10059000000000000000000000000000000000005B
:0205A000300029
:061000009DEF02F012005A
:02100600FFFFEA
:0610080020EF0DF01200C4
:021016000001D7
:061018006BEF0DF0120069
:02101E00D9CF28
:10102000E6FFE1CFD9FF300EF36EFE0EDBCFF4FF0B
:10103000F350F45C11E3FE0EDB5039080DE3FE0EB5
:10104000DB50D00F146E156A14BE156814C0F3FF80
:1010500015C0F4FF1DD01CD0410EF36EFE0EDBCF89
:10106000F4FFF350F45C11E3FE0EDB5046080DE391
:10107000FE0EDB50C90F146E156A14BE156814C03D
:10108000F3FF15C0F4FF04D003D0F368F46800D078
:10109000E552E7CFD9FF1200D9CFE6FFE1CFD9FF64
:1010A000FD0EDBCF08F0FE0EDBCF09F0230E081893
:1010B00001E1095001E1E8D1220E081801E10950CF
:1010C00001E1D8D1210E081801E1095001E1C8D190
:1010D000200E081801E1095001E1B8D11F0E0818CF
:1010E00001E1095001E1A8D11E0E081801E10950E3
:1010F00001E198D11D0E081801E1095001E188D1E4
:101100001C0E081801E1095001E178D11B0E0818E6
:1011100001E1095001E168D11A0E081801E10950F6
:1011200001E158D1190E081801E1095001E148D137
:10113000180E081801E1095001E138D1170E0818FE
:1011400001E1095001E128D1160E081801E109500A
:1011500001E118D1120E081801E1095001E108D18E
:10116000110E081801E1095001E1F8D0100E08181D
:1011700001E1095001E1E8D00F0E081801E1095022
:1011800001E1D8D00E0E081801E1095001E1C8D0E4
:101190000D0E081801E1095001E1B8D00C0E081835
:1011A00001E1095001E1A8D00B0E081801E1095036
:1011B00001E198D00A0E081801E1095001E188D038
:1011C000090E081801E1095001E178D0080E08184D
:1011D00001E1095069E0060E081801E109505AE0E2
:1011E000050E081801E109504BE0040E081801E152
:1011F00009503CE0030E081801E109502DE0020EF1
:10120000081801E109501EE0010E081801E109501B
:101210000FE0085001E1095001E040D1FE0E9214A8
:10122000926EFB0EDB50E8B08080E8A0809036D153
:10123000FD0E9214926EFB0EDB50E8B08082E8A0A7
:1012400080922CD1FB0E9214926EFB0EDB50E8B014
:101250008084E8A0809422D1F70E9214926EFB0E47
:10126000DB50E8B08086E8A0809618D1EF0E92148B
:10127000926EFB0EDB50E8B08088E8A080980ED11B
:10128000DF0E9214926EFB0EDB50E8B0808AE8A06D
:10129000809A04D1BF0E9214926EFB0EDB50E8B020
:1012A000808CE8A0809CFAD0FE0E9314936EFB0E07
:1012B000DB50E8B08180E8A08190F0D0FD0E93145F
:1012C000936EFB0EDB50E8B08182E8A08192E6D0FD
:1012D000FB0E9314936EFB0EDB50E8B08184E8A004
:1012E0008194DCD0F70E9314936EFB0EDB50E8B0C4
:1012F0008186E8A08196D2D0EF0E9314936EFB0EF8
:10130000DB50E8B08188E8A08198C8D0DF0E931444
:10131000936EFB0EDB50E8B0818AE8A0819ABED0C4
:10132000BF0E9314936EFB0EDB50E8B0818CE8A0E7
:10133000819CB4D07F0E9314936EFB0EDB50E8B00B
:10134000818EE8A0819EAAD0FE0E9414946EFB0EAE
:10135000DB50E8B08280E8A08290A0D0FD0E94140B
:10136000946EFB0EDB50E8B08282E8A0829296D0A9
:10137000FB0E9414946EFB0EDB50E8B08284E8A060
:1013800082948CD0BF0E9414946EFB0EDB50E8B0A8
:10139000828CE8A0829C82D07F0E9414946EFB0E07
:1013A000DB50E8B0828EE8A0829E78D0FE0E9514C5
:1013B000956EFB0EDB50E8B08380E8A083906ED082
:1013C000FD0E9514956EFB0EDB50E8B08382E8A00D
:1013D000839264D0FB0E9514956EFB0EDB50E8B043
:1013E0008384E8A083945AD0F70E9514956EFB0E73
:1013F000DB50E8B08386E8A0839650D0EF0E9514BA
:10140000956EFB0EDB50E8B08388E8A0839846D049
:10141000DF0E9514956EFB0EDB50E8B0838AE8A0D2
:10142000839A3CD0BF0E9514956EFB0EDB50E8B04E
:10143000838CE8A0839C32D07F0E9514956EFB0EB2
:10144000DB50E8B0838EE8A0839E28D0FE0E961471
:10145000966EFB0EDB50E8B08480E8A084901ED02E
:10146000FD0E9614966EFB0EDB50E8B08482E8A069
:10147000849214D0FB0E9614966EFB0EDB50E8B0EF
:101480008484E8A084940AD0F70E9614966EFB0E1E
:10149000DB50E8B08486E8A0849600D0E552E7CF20
:1014A000D9FF1200D9CFE6FFE1CFD9FF040EE12624
:1014B000DE6ADD6ADECF14F0DDCF15F0FD0EDBCF86
:1014C00016F0FE0EDBCF17F01650145C17501558AF
:1014D0001DE2020EDB6A030EDB6A020EDBCF14F0A4
:1014E000030EDBCF15F0D890155004E6640E145CA3
:1014F000000E155806E2020EDB2A030E01E3DB2A7A
:10150000ECD7DF2A010E01E3DB2AD4D7040EE15C1D
:1015100002E2E16AE552E16EE552E7CFD9FF12003F
:10152000D9CFE6FFE1CFD9FFD950FD0FE96EFF0E0D
:10153000DA20EA6E100EEE1801E1ED5004E1BF0E64
:10154000C714C76E0ED0D950FD0FE96EFF0EDA201A
:10155000EA6E010EEE1801E1ED5003E1400EC710F6
:10156000C76EE552E7CFD9FF1200D9CFE6FFE1CF32
:10157000D9FF020EE126800EE76EFD0EDBCF14F0E0
:10158000FE0EDBCF15F0E7501412FD0E14C0DBFF8A
:10159000FE0E15C0DBFF000EE66EE66A180EE66E64
:1015A000E66A7ADDE552E552E552E552FD0EDBCF03
:1015B000E6FF85EC02F0E552FB0EDBCFE6FF85ECA3
:1015C00002F0E552800E9410946E050EE66EE66A07
:1015D00069DFE552E552A9EC02F0DE6EDD6A7F0EAE
:1015E0009414946E010EE66EE66A180EE66EE66AD4
:1015F00053DDE552E552E552E552DECF14F0DDCF82
:1016000015F014C0F3FF15C0F4FF020EE15C03E215
:1016100000D0E16AE552E16EE552E7CFD9FF120052
:10162000D9CFE6FFE1CFD9FF000EE66EE66A180ECD
:10163000E66EE66A31DDE552E552E552E552FD0E11
:10164000DBCFE6FF85EC02F0E552FB0EDBCFE6FFD9
:1016500085EC02F0E552F90EDBCFE6FF85EC02F0F7
:10166000E552010EE66EE66A180EE66EE66A14DDD5
:10167000E552E552E552E552E552E7CFD9FF1200B7
:10168000D9CFE6FFE1CFD9FF020EE126800EE76E4B
:10169000FD0EDBCF14F0FE0EDBCF15F0E750141279
:1016A000FD0E14C0DBFFFE0E15C0DBFF000EE66E64
:1016B000E66A1A0EE66EE66AEFDCE552E552E5529E
:1016C000E552FD0EDBCFE6FF85EC02F0E552FB0EA6
:1016D000DBCFE6FF85EC02F0E552800E9410946EAD
:1016E000050EE66EE66ADEDEE552E552A9EC02F092
:1016F000DE6EDD6A7F0E9414946E010EE66EE66A6D
:101700001A0EE66EE66AC8DCE552E552E552E5528D
:10171000DECF14F0DDCF15F014C0F3FF15C0F4FFD9
:10172000020EE15C03E200D0E16AE552E16EE552AF
:10173000E7CFD9FF1200D9CFE6FFE1CFD9FF000EE6
:10174000E66EE66A1A0EE66EE66AA6DCE552E55239
:10175000E552E552FD0EDBCFE6FF85EC02F0E552E7
:10176000FB0EDBCFE6FF85EC02F0E552F90EDBCF96
:10177000E6FF85EC02F0E552010EE66EE66A1A0E0F
:10178000E66EE66A89DCE552E552E552E552E5523D
:10179000E7CFD9FF1200D9CFE6FFE1CFD9FF020E84
:1017A000E126800EE76EFD0EDBCF14F0FE0EDBCFE0
:1017B00015F0E7501412FD0E14C0DBFFFE0E15C02D
:1017C000DBFF000EE66EE66A190EE66EE66A64DC82
:1017D000E552E552E552E552FD0EDBCFE6FF85EC22
:1017E00002F0E552FB0EDBCFE6FF85EC02F0E5529E
:1017F000800E9410946E050EE66EE66A53DEE55296
:10180000E552A9EC02F0DE6EDD6A7F0E9414946E50
:10181000010EE66EE66A190EE66EE66A3DDCE552FA
:10182000E552E552E552DECF14F0DDCF15F014C0DD
:10183000F3FF15C0F4FF020EE15C03E200D0E16AA1
:10184000E552E16EE552E7CFD9FF1200D9CFE6FFAE
:10185000E1CFD9FF000EE66EE66A190EE66EE66A83
:101860004CEC08F0E552E552E552E552FD0EDBCFB7
:10187000E6FF85EC02F0E552FB0EDBCFE6FF85ECE0
:1018800002F0E552050EE66EE66A0CDEE552E55220
:10189000F90EDBCFE6FF85EC02F0E552010EE66EB5
:1018A000E66A190EE66EE66A4CEC08F0E552E5527F
:1018B000E552E552E552E7CFD9FF1200D9CFE6FF56
:1018C000E1CFD9FF100EE66EE66A2ADEE552E55258
:1018D000000EE66EE66A1B0EE66EE66A4CEC08F059
:1018E000E552E552E552E552FD0EDBCFE6FF85EC11
:1018F00002F0E552FB0EDBCFE6FF85EC02F0E5528D
:10190000F90EDBCFE6FF85EC02F0E552010EE66E44
:10191000E66A1B0EE66EE66A4CEC08F0E552E5520C
:10192000E552E552010EE66EE66AFADDE552E55251
:10193000E552E7CFD9FF1200D9CFE6FFE1CFD9FFBB
:10194000020EE126100EE66EE66AEADDE552E55289
:10195000800EE76EFD0EDBCF14F0FE0EDBCF15F030
:10196000E7501412FD0E14C0DBFFFE0E15C0DBFFA6
:10197000000EE66EE66A1B0EE66EE66A4CEC08F0B8
:10198000E552E552E552E552FD0EDBCFE6FF85EC70
:1019900002F0E552800E9410946E050EE66EE66A33
:1019A00081DDE552E552A9EC02F0DE6EDD6ADECFA4
:1019B00016F0DDCF17F016C017F0166A14C0E6FF58
:1019C00016C0E6FF17C0E6FFA9EC02F0E552E7CF2C
:1019D00017F0E552E7CF16F0E552E7CF14F000011B
:1019E0001610146E17C015F014C0DEFF15C0DDFF11
:1019F0007F0E9414946E010EE66EE66A1B0EE66E80
:101A0000E66A4CEC08F0E552E552E552E552010E6B
:101A1000E66EE66A85DDE552E552DECF14F0DDCFF5
:101A200015F014C0F3FF15C0F4FF020EE15C03E2F1
:101A300000D0E16AE552E16EE552E7CFD9FF12002E
:101A4000DACFE4FFE2CFDAFFE9CFE4FFEACFE4FF49
:101A5000F6CFE4FFF7CFE4FFF5CFE4FFF3CFE4FFE9
:101A6000F4CFE4FFFACFE4FF00EE00F0140EE80438
:101A700003E3EECFE4FFFBD700EE14F0060EE8041C
:101A800003E3EECFE4FFFBD7E652AEEC16F0E552EF
:101A900000EE19F0060EE80403E3E5CFEDFFFBD7F7
:101AA00000EE13F0140EE80403E3E5CFEDFFFBD7DF
:101AB000E5CFFAFFE5CFF4FFE5CFF3FFE5CFF5FF84
:101AC000E5CFF7FFE5CFF6FFE5CFEAFFE5CFE9FF8A
:101AD000E5CFDAFF1100D8CFE4FFE0CFE4FFE46EFA
:101AE000DACFE4FFE2CFDAFFE652E552E5CFDAFFE4
:101AF000E550E5CFE0FFE5CFD8FF10000BD8F5ECBF
:101B000018F0310E0001A46FA56BAEEC16F028D8CA
:101B1000FCD712001FD822EC16F0800EE66EE66AA3
:101B2000020EE66E25EC02F0E552E552E552010E9A
:101B3000E66EE66AF5DCE552E552C26A7F0ED01425
:101B4000D06EF26AFF0EE66EE66AACDCE552E55254
:101B5000BFEF15F00001606B616B626B636B12008D
:101B6000D9CFE6FFE1CFD9FF020EE126200E00011A
:101B7000E76EA619E8AE02D0E73402D0E750A65DC2
:101B800003E36D50020B01E079D000016051611157
:101B900002E1000E08D060C0E9FF61C0EAFFEF502B
:101BA000800B01E0010E000969E10501005153E0DD
:101BB000DE6ADD6ADECFE9FFDDCFEAFF000EE9264F
:101BC000050EEA22EF501AE0DECFE9FFDDCFEAFF93
:101BD000000EE926050EEA22EF50E66EDECFE9FFA1
:101BE000DDCFEAFF640EE926000EEA22E552E75057
:101BF000EF6EDF2A010E01E3DB2ADCD7DECFE9FF3F
:101C0000DDCFEAFF640EE926000EEA22EF6AD6D89D
:101C100000016251631102E1000E08D062C0E9FFC9
:101C200063C0EAFFEF50800B01E0010E000913E1F1
:101C3000400EE66E400EE66E050EE66E010EE66E96
:101C4000E66EA4EC17F0146E050EE15E1450F3CFAF
:101C500062F0F4CF63F0400EE66E000EE66E050E05
:101C6000E66EE66A010EE66EA4EC17F0146E050E41
:101C7000E15E1450F3CF60F0F4CF61F0020EE15C4E
:101C800002E2E16AE552E16EE552E7CFD9FF1200C8
:101C900012001200120012001CEF00F012001E0EC3
:101CA000E66E010EE66E6DEC17F0E552E552400E61
:101CB000E66E000EE66E050EE66EE66A010EE66E54
:101CC000A4EC17F0146E050EE15E1450F3CF60F033
:101CD000F4CF61F012000001C50520E10001C60546
:101CE0001DE1A09AD6DF6D920001C66B0001100EB7
:101CF000E06F0E0EE16FE007000EE15BE051E111D5
:101D0000FAE16D84080EE06F070EE16FE007000E48
:101D1000E15BE051E111FAE16D94A08A1200D9CFA4
:101D2000E6FFE1CFD9FFFD0EDBCF08F0FE0EDBCFE3
:101D300009F0050E081801E1095039E0E8680818B3
:101D400002E17F0E091831E0030E081801E1095085
:101D50002AE0020E081801E1095023E0010E0818DC
:101D600001E109501CE0740E081801E1095015E06A
:101D7000750E081801E109500EE0730E081801E114
:101D8000095007E0720E081801E1095001E010D077
:101D90000FD080DF0DD07CDF0BD07BDF09D07FDF61
:101DA00007D07CDF05D078DF03D075DF01D000D00D
:101DB000010E00D0E552E7CFD9FF1200D9CFE6FFE0
:101DC000E1CFD9FF1D0EE126DE6ADD6A020EDB6A75
:101DD000030EDB6A040EDB6AD950050FE96EDACF19
:101DE000EAFFEE6AEE6AEE6AEE6AEE6AEE6AEE6AA2
:101DF000EE6AEE6AEE6AEE6AEE6AEE6AEE6A010E6C
:101E0000F36E130EF3CFDBFF140EDB6A150EDB6AE5
:101E1000160EDB6A170EDB6A180EDB6A190EDB6A18
:101E20001A0EDB6A2A0E0001645D01E0B7D07E0E57
:101E3000146E020E156E166A14C0E6FF15C0E6FF9A
:101E400016C0E6FF640EE66E000EE66EF6EC01F0DC
:101E5000176E050EE15E1750000905E1130EDB68F1
:101E6000140EDB682ED1770E146E020E156E166AF4
:101E700014C0E6FF15C0E6FF16C0E6FF640EE66E6E
:101E8000000EE66EF6EC01F0176E050EE15E1750DF
:101E9000000908E1FE0EF36E130EF3CFDBFF140E04
:101EA000DB680FD1710E146E020E156E166A14C027
:101EB000E6FF15C0E6FF16C0E6FF640EE66E000EF4
:101EC000E66EF6EC01F0176E050EE15E17500009A4
:101ED00008E1FD0EF36E130EF3CFDBFF140EDB688B
:101EE000F0D06B0E146E020E156E166A14C0E6FF6B
:101EF00015C0E6FF16C0E6FF640EE66E000EE66E45
:101F0000F6EC01F0176E050EE15E1750000908E1CE
:101F1000FC0EF36E130EF3CFDBFF140EDB68D1D093
:101F2000640E146E020E156E166A14C0E6FF15C01C
:101F3000E6FF16C0E6FF640EE66E000EE66EF6ECF7
:101F400001F0176E050EE15E1750000908E1FB0E67
:101F5000F36E130EF3CFDBFF140EDB68B2D05D0E11
:101F6000146E020E156E166A14C0E6FF15C0E6FF69
:101F700016C0E6FF640EE66E000EE66EF6EC01F0AB
:101F8000176E050EE15E1750000908E1FA0EF36EB8
:101F9000130EF3CFDBFF140EDB6893D0DE6ADD6A2D
:101FA000DECFE9FFDDCFEAFF640EE926000EEA226C
:101FB000EF5020081DE0DECFE9FFDDCFEAFF640E21
:101FC000E926000EEA22EF50E66ED950040F146E97
:101FD000DACF15F0DE501424E96EDD501520EA6EDC
:101FE000E552E750EF6EDF2A010E01E3DB2AD8D776
:101FF000D950040F146EDACF15F0DE501424E96EB8
:10200000DD501520EA6EEF6A020EDB6A030EDB6A12
:10201000020EDBCFF6FF030EDBCFF7FF0F0EF7024A
:10202000F3CFF7FFF602F3CFF6FFF450F726220EB8
:10203000F626030EF722F6CF14F0F7CF15F0166A46
:1020400014C0E6FF15C0E6FF16C0E6FFD950040F26
:10205000E66E000EDA20E66EF6EC01F0176E050E65
:10206000E15E1750000919E0020EDBCF18F0030EF5
:10207000DBCF19F0D890195004E6050E185C000E5D
:1020800019580BE2020EDB2A030E01E3DB2A130EC2
:10209000DB2A140E01E3DB2ABBD7020EDBCF14F0E0
:1020A000030EDBCF15F0D890155004E6050E145C36
:1020B000000E155804E3130EDB6A140EDB6A01D020
:1020C000B1D6DECFE9FFDDCFEAFF640EE926000ED0
:1020D000EA22EF50200801E07CD2DECFE9FFDDCF1D
:1020E000EAFF640EE926000EEA22EF50200805E11F
:1020F000DF2A010E01E3DB2AF0D7DECFE9FFDDCFD7
:10210000EAFF640EE926000EEA22EFCF14F0410E3A
:10211000145C01E2A9D0DECFE9FFDDCFEAFF640E57
:10212000E926000EEA22EF50450801E29DD0DECFFD
:10213000E9FFDDCFEAFF010EE926000EEA22640E78
:10214000E926000EEA22EFCF14F0300E145C01E213
:102150008AD0DECFE9FFDDCFEAFF010EE926000ECF
:10216000EA22640EE926000EEA22EF50370801E267
:102170007AD0DECFE9FFDDCFEAFF010EE926000EBF
:10218000EA22640EE926000EEA22EFCF14F0DECF39
:10219000E9FFDDCFEAFF640EE926000EEA22EF50E8
:1021A000BF0F080DF3501424D00FE66ED950150F51
:1021B000E96EDACFEAFFE552E750EE6EED6ADECF68
:1021C000E9FFDDCFEAFF640EE926000EEA22EF50B8
:1021D000480801E11CD0DECFE9FFDDCFEAFF640E45
:1021E000E926000EEA22EF504C0801E110D0DECFC4
:1021F000E9FFDDCFEAFF640EE926000EEA22EF5088
:1022000001E105D0DF2A010E01E3DB2AD8D7DECFBA
:10221000E9FFDDCFEAFF640EE926000EEA22EF5067
:102220000A080AE0DECFE9FFDDCFEAFF640EE92607
:10223000000EEA22EF5005E1130EDB6A140EDB6A92
:1022400012D0DECFE9FFDDCFEAFF640EE926000EF3
:10225000EA22EF50480807E1010EF36E170EF3CFA4
:10226000DBFF180EDB6AB5D1DECFE9FFDDCFEAFF79
:10227000010EE926000EEA22640EE926000EEA228B
:10228000EF50780801E0A5D1020EDE26000EDD2217
:10229000DECFE9FFDDCFEAFF640EE926000EEA2279
:1022A000EF50E66E0FEC08F0E5521B0EF3CFDBFFAC
:1022B0001C0EF4CFDBFFD9501B0FE96EDACFEAFF1B
:1022C000FF0EEE1802E1FF0EED1804E1130EDB6ABB
:1022D000140EDB6A100E086E096A1B0EDBCF0DF0C0
:1022E0001C0EDBCF0EF058EC02F006C014F007C055
:1022F00015F0D950150FE96EDACFEAFF1450EE262B
:102300001550ED22DF2A010E01E3DB2ADECFE9FFC3
:10231000DDCFEAFF640EE926000EEA22EF50E66EFA
:102320000FEC08F0E5521B0EF3CFDBFF1C0EF4CFD1
:10233000DBFFD9501B0FE96EDACFEAFFFF0EEE1874
:1023400002E1FF0EED1804E1130EDB6A140EDB6AE6
:102350001B0EDBCF14F01C0EDBCF15F0D950150F80
:10236000E96EDACFEAFF1450EE261550ED22DECFEB
:10237000E9FFDDCFEAFF640EE926000EEA22EF5006
:10238000780801E110D0DECFE9FFDDCFEAFF640E6F
:10239000E926000EEA22EF5001E105D0DF2A010E06
:1023A00001E3DB2AE4D7DECFE9FFDDCFEAFF640EED
:1023B000E926000EEA22EF5073E0DF2A010E01E366
:1023C000DB2ADECFE9FFDDCFEAFF640EE926000E4F
:1023D000EA22EF50E66E0FEC08F0E5521B0EF3CF49
:1023E000DBFF1C0EF4CFDBFFD9501B0FE96EDACFF9
:1023F000EAFFFF0EEE1802E1FF0EED1804E1130EE6
:10240000DB6A140EDB6A100E086E096A1B0EDBCF46
:102410000DF01C0EDBCF0EF058EC02F006C014F0ED
:1024200007C015F0D950170FE96EDACFEAFF145044
:10243000EE261550ED22DF2A010E01E3DB2ADECF66
:10244000E9FFDDCFEAFF640EE926000EEA22EF5035
:10245000E66E0FEC08F0E5521B0EF3CFDBFF1C0E0F
:10246000F4CFDBFFD9501B0FE96EDACFEAFFFF0E86
:10247000EE1802E1FF0EED1804E1130EDB6A140EF4
:10248000DB6A1B0EDBCF14F01C0EDBCF15F0D9502E
:10249000170FE96EDACFEAFF1450EE261550ED2241
:1024A000DECFE9FFDDCFEAFF640EE926000EEA2267
:1024B000EF50780801E110D0DECFE9FFDDCFEAFF71
:1024C000640EE926000EEA22EF5001E105D0DF2A72
:1024D000010E01E3DB2AE4D7DECFE9FFDDCFEAFF1F
:1024E000640EE926000EEA22EF5073E0DF2A010EA7
:1024F00001E3DB2ADECFE9FFDDCFEAFF640EE92648
:10250000000EEA22EF50E66E0FEC08F0E5521B0ECB
:10251000F3CFDBFF1C0EF4CFDBFFD9501B0FE96EAE
:10252000DACFEAFFFF0EEE1802E1FF0EED1804E12C
:10253000130EDB6A140EDB6A100E086E096A1B0E9E
:10254000DBCF0DF01C0EDBCF0EF058EC02F006C016
:1025500014F007C015F0D950190FE96EDACFEAFF71
:102560001450EE261550ED22DF2A010E01E3DB2A7E
:10257000DECFE9FFDDCFEAFF640EE926000EEA2296
:10258000EF50E66E0FEC08F0E5521B0EF3CFDBFFC9
:102590001C0EF4CFDBFFD9501B0FE96EDACFEAFF38
:1025A000FF0EEE1802E1FF0EED1804E1130EDB6AD8
:1025B000140EDB6A1B0EDBCF14F01C0EDBCF15F004
:1025C000D950190FE96EDACFEAFF1450EE261550F4
:1025D000ED22DE6ADD6ADECFE9FFDDCFEAFF400EE5
:1025E000E926050EEA22EF501AE0DECF14F0DDCF27
:1025F00015F0D890155004E6400E145C000E1558E6
:102600000EE2DECFE9FFDDCFEAFF400EE926050E40
:10261000EA22EF6ADF2A010E01E3DB2ADCD7130E80
:10262000DBCF08F0140EDBCF09F0FA0E081802E138
:10263000E868091801E115D2FB0E081802E1E86804
:10264000091801E10BD2FC0E081802E1E86809182C
:1026500001E103D2FD0E081802E1E868091801E162
:10266000E2D1FE0E081802E1E868091801E1C5D1BF
:10267000E868081802E1E868091801E1A4D1050E2C
:10268000081801E1095001E19DD1040E081801E18B
:10269000095001E11BD1030E081801E1095001E1C5
:1026A000FFD0020E081801E1095001E199D0010E96
:1026B000081801E109501BE0085001E1095001E050
:1026C0003AD2490E146E020E156E166A14C0E6FF59
:1026D00015C0E6FF16C0E6FF400EE66E050EE66E7C
:1026E0000CEC02F0176E050EE15E175024D20001CB
:1026F000320EA41901E1A55119E1190EDBCFE6FF55
:102700001A0EDBCFE6FF170EDBCFE6FF180EDBCF8E
:10271000E6FF150EDBCFE6FF160EDBCFE6FF10EC73
:102720000BF0146E060EE15E145059D0330EA4194E
:1027300001E1A55119E1190EDBCFE6FF1A0EDBCF3F
:10274000E6FF170EDBCFE6FF180EDBCFE6FF150E18
:10275000DBCFE6FF160EDBCFE6FF26EC0CF0146EA7
:10276000060EE15E14503BD0340EA41901E1A551D0
:1027700019E1190EDBCFE6FF1A0EDBCFE6FF170ECD
:10278000DBCFE6FF180EDBCFE6FF150EDBCFE6FF53
:10279000160EDBCFE6FF9BEC0BF0146E060EE15E2F
:1027A00014501DD0350EA41901E1A55118E1190EE0
:1027B000DBCFE6FF1A0EDBCFE6FF170EDBCFE6FF1F
:1027C000180EDBCFE6FF150EDBCFE6FF160EDBCFD4
:1027D000E6FF5EEC0CF0146E060EE15E1450ABD119
:1027E000D950150FE96EDACFEAFF180EEE1801E1A5
:1027F000ED5004E1320E0001A46FA56BD950150F06
:10280000E96EDACFEAFF190EEE1801E1ED5004E1AE
:10281000330E0001A46FA56BD950150FE96EDACF06
:10282000EAFF1A0EEE1801E1ED5004E1340E00014A
:10283000A46FA56BD950150FE96EDACFEAFF1B0E16
:10284000EE1801E1ED5004E1350E0001A46FA56B17
:10285000170EDBCFE6FF180EDBCFE6FF150EDBCF42
:10286000E6FF160EDBCFE6FF4CEC08F0E552E55232
:10287000E552E5522F0E146E020E156E166A14C044
:10288000E6FF15C0E6FF16C0E6FF400EE66E050E39
:10289000E66E0CEC02F0176E050EE15E17504BD1A0
:1028A000030E146E020E156E166A14C0E6FF15C0F4
:1028B000E6FF16C0E6FF400EE66E050EE66E0CEC77
:1028C00002F0176E050EE15E175035D10001320E91
:1028D000A41901E1A55115E1170EDBCFE6FF180E93
:1028E000DBCFE6FF150EDBCFE6FF160EDBCFE6FFF4
:1028F000B5EC0AF0E552E552E552E552F3CF40F56A
:1029000060D0330EA41901E1A55115E1170EDBCFFC
:10291000E6FF180EDBCFE6FF150EDBCFE6FF160E47
:10292000DBCFE6FFCBEC0BF0E552E552E552E5528A
:10293000F3CF40F546D0340EA41901E1A55115E1BD
:10294000170EDBCFE6FF180EDBCFE6FF150EDBCF51
:10295000E6FF160EDBCFE6FF40EC0BF0E552E5524A
:10296000E552E552F3CF40F52CD0350EA41901E124
:10297000A55127E1150EDBCFE6FF160EDBCFE6FFF4
:102980009CEC0CF0E552E552150EF3CFDBFF160E72
:10299000F4CFDBFF110EE76E150EDBCF14F0160E31
:1029A000DBCF15F0E7501416156A14C040F5150E6C
:1029B000DBCF14F0160EDBCF15F0000E141405015A
:1029C000416FB9D0B8D0310E0001A46FA56BEE0EE7
:1029D000146E010E156E166A14C0E6FF15C0E6FFF0
:1029E00016C0E6FF400EE66E050EE66E0CEC02F039
:1029F000176E050EE15E17509ED0D50E146E010EB7
:102A0000156E166A14C0E6FF15C0E6FF16C0E6FF95
:102A1000400EE66E050EE66E0CEC02F0176E050E2B
:102A2000E15E175088D0310E0001A46FA56BEE0E49
:102A3000146E010E156E166A14C0E6FF15C0E6FF8F
:102A400016C0E6FF400EE66E050EE66E0CEC02F0D8
:102A5000176E050EE15E17506ED06DD0A4C040F524
:102A60006AD0DE6ADD6ADECF14F0DDCF15F0D890D3
:102A7000155004E6040E145C000E155826E2DECF55
:102A8000E6FFDDCFE6FF800EE66EE66AB5EC0AF003
:102A9000E552E552E552E552F350E66EDECFE9FF2E
:102AA000DDCFEAFF400EE926050EEA22E552E750A7
:102AB000EF6E280EE66EE66A52EC0AF0E552E55239
:102AC000DF2A010E01E3DB2ACED7100EDE6EDD6AAF
:102AD000DECF14F0DDCF15F0D890155004E61F0EB0
:102AE000145C000E155826E2DECFE6FFDDCFE6FFD0
:102AF000800EE66EE66ACBEC0BF0E552E552E5524D
:102B0000E552F350E66EDECFE9FFDDCFEAFF400E7F
:102B1000E926050EEA22E552E750EF6E280EE66E32
:102B2000E66A52EC0AF0E552E552DF2A010E01E3B3
:102B3000DB2ACED700D0DE6ADD6ADECFE9FFDDCF4B
:102B4000EAFF640EE926000EEA22EF500EE0DECF27
:102B5000E9FFDDCFEAFF640EE926000EEA22EF6A04
:102B6000DF2A010E01E3DB2AE8D71D0EE15C02E259
:102B7000E16AE552E16EE552E7CFD9FF1200010E9E
:102B8000E66EE66A120EE66EE66A4CEC08F0E55276
:102B9000E552E552E552010EE66EE66A180EE66E63
:102BA000E66A4CEC08F0E552E552E552E552010EBA
:102BB000E66EE66A190EE66EE66A4CEC08F0E5523F
:102BC000E552E552E552010EE66EE66A1A0EE66E31
:102BD000E66A4CEC08F0E552E552E552E552010E8A
:102BE000E66EE66A1B0EE66EE66A4CEC08F0E5520D
:102BF000E552E552E552320EE66EE66A52EC0AF014
:102C0000E552E552000EE66EE66A120EE66EE66AE0
:102C10004CEC08F0E552E552E552E552FF0EE66E47
:102C2000E66A52EC0AF0E552E552010EE66EE66AFB
:102C3000120EE66EE66A4CEC08F0E552E552E552FB
:042C4000E552120047
:0C2C4400D9CFE6FFE1CFD9FFE652A09AFD
:102C50006A6A686A706A010EE66EE66AE66A710E72
:102C6000E66E0F0EE66EDCEC01F0146E050EE15E12
:102C70001450160E6F6E9F0E6B6E7B0E696EDF6AC0
:102C8000DF50146E156A080E145C000E155810E221
:102C9000DF50040DF3CFE9FFF4CFEAFF000EE92681
:102CA000040EEA22EE6AEE6AEE6AEE6ADF2AE8D7DE
:102CB0006D8C6E6A6D986D9C68A607D06896000151
:102CC000B96BBE6BBF6BC06BF7D70001010ED06F45
:102CD000D16FD26BD36BC66BDF6A020EDF5C26E26C
:102CE000EA6ADF34FE0BEA36E96EB10EE926000E21
:102CF000EA22EE6AED6AEA6ADF34FE0BEA36E96E32
:102D0000AD0EE926000EEA22EE6AED6ADF50EA6AAD
:102D1000CA0FE96E000EEA22EF6ADF50EA6ACC0FB2
:102D2000E96E000EEA22EF6ADF2AD7D70001080E0B
:102D3000B16F040EB26F160E706E0401200E026F9A
:102D4000040E036F080E016F840E006F0001A76B65
:102D5000A66BE552E552E7CFD9FF1200D9CFE6FFC7
:102D6000E1CFD9FFE6520001A60507E16DBA05D013
:102D7000686A69806988020EA66F6850040B06E0D5
:102D80006950040B03E06894C6EC1CF06DA202D0FD
:102D9000A19A9ED06850010B09E06950010B06E032
:102DA00051DFA08A0001040EA66F68906850100BD6
:102DB00006E06950100B03E0B1EC1CF0689868ACB9
:102DC00019D069AC0FD0010EE66EE66A000EE66E11
:102DD000E66A730EE66EE66A8FEC0EF0146E060E6F
:102DE000E15E1450689C0001CE5101E0CE07CE5147
:102DF00001E112DA6850200B05E06950200B02E077
:102E000098EC1CF06850020B13E06950020B10E0C4
:102E1000010EE66EE66A000EE66EE66AE6687F0E72
:102E2000E66E8FEC0EF0146E060EE15E14506A6AC8
:102E3000040E0001E76EA619E8AE02D0E73402D016
:102E4000E750A65D02E2A19A43D069A640D0DF6AAE
:102E5000040EDF5C3CE268A639D06CCFC7F00001FD
:102E6000C751780BE842E842E842C86F6896C7B598
:102E70000BD0C851EA6ACC0FE96E000EEA22EFCF00
:102E800014F0000114700AD0C851EA6ACA0FE96E42
:102E9000000EEA22EFCF14F0000114700001C851B7
:102EA00003E1DDEC1CF010D0000EE66EE66AC70E02
:102EB000E66E000EE66E720EE66EE66A8FEC0EF0BF
:102EC000146E060EE15E1450DF2AC2D700D0A19A1C
:102ED000E552E552E7CFD9FF1200D9CFE6FFE1CFA7
:102EE000D9FF020EE126FD0EDBA407D0E66AFE0E36
:102EF000DBCFE6FF22DAE552E552FD0EDBA208D079
:102F0000010EE66EFE0EDBCFE6FF17DAE552E55264
:102F1000FE0EDB50156A700F146E0F0E152214C0D2
:102F2000DEFF15C0DDFFDECFE9FFDDCFEAFFFD0EDE
:102F3000DBCFEFFF020EE15C02E2E16AE552E16EF7
:102F4000E552E7CFD9FF1200D9CFE6FFE1CFD9FF95
:102F5000020EE126FD0EDB500FE0FE0EEA6ADB34C6
:102F6000FE0BEA36E96EB10EE926000EEA22EECF3C
:102F7000DEFFEDCFDDFF0ED0FE0EEA6ADB34FE0B86
:102F8000EA36E96EAD0EE926000EEA22EECFDEFF4C
:102F9000EDCFDDFFD9CFE9FFDACFEAFFEE50ED103C
:102FA00003E1F36AF46A49D0DECFE9FFDDCFEAFF3F
:102FB000020EE926000EEA22FB0EDBCFEEFFFC0E2E
:102FC000DBCFEDFFDECFE9FFDDCFEAFFEE52FA0EF9
:102FD000DBCFEFFF400E146EDECFE9FFDDCFEAFF5F
:102FE0001450EF16880E146EDECFE9FFDDCFEAFF36
:102FF0001450EF12FD0EDB500CE0FE0EEA6ADB34DB
:10300000FE0BEA36E96EB10EE926000EEA22EF74F5
:103010000BD0FE0EEA6ADB34FE0BEA36E96EAD0E2B
:10302000E926000EEA22EF74DECF14F0DDCF15F0B2
:1030300014C0F3FF15C0F4FF00D0020EE15C02E201
:10304000E16AE552E16EE552E7CFD9FF1200D9CF30
:10305000E6FFE1CFD9FF020EE126FE0EDB5020E1B4
:10306000ABC0E9FFACC0EAFFEE52080EEF6EABC09A
:10307000E9FFACC0EAFF020EE926000EEA22200EAC
:10308000EE6E040EED6EABC0E9FFACC0EAFF8C0E35
:10309000EF6EB1C0E9FFB2C0EAFF840EEF6E3DD023
:1030A000FD0EDB50E824166EFE0EDB50040DF350CF
:1030B0001624040DF3CF14F0F4CF15F0000E1426EF
:1030C000040E152214C0DEFF15C0DDFF840E146E41
:1030D000DECFE9FFDDCFEAFF1450EF12FD0EDB502B
:1030E000E824166EFE0EDB50040DF3501624010F7B
:1030F000040DF3CF14F0F4CF15F0000E1426040ED7
:10310000152214C0DEFF15C0DDFF840E146EDECF65
:10311000E9FFDDCFEAFF1450EF12020EE15C02E29C
:10312000E16AE552E16EE552E7CFD9FF1200D9CF4F
:10313000E6FFE1CFD9FF6DA84ED0FE0EEA6ADB3480
:10314000FE0BEA36E96EB10EE926000EEA22EE50D9
:10315000EFCFEAFFE96E400EEE16EE6AEE6AEE6A17
:10316000FE0EEA6ADB34FE0BEA36E96EB10EE926A2
:10317000000EEA22EE50EFCFEAFFE96EEE7CFE0E83
:10318000EA6ADB34FE0BEA36E96EB10EE926000E80
:10319000EA22EF74400E146EFE0EEA6ADB34FE0B78
:1031A000EA36E96EB10EE926000EEA22EE50EFCFC4
:1031B000EAFFE96E1450EF16FE0EEA6ADB34FE0BEE
:1031C000EA36E96EB10EE926000EEA22EE50EFCFA4
:1031D000EAFFE96EEF7CE552E7CFD9FF12006D6A96
:1031E000696A0001A66B00D012000001A65113E12C
:1031F0006D6A696A160E6F6E9F0E6B6E7B0E696E3E
:10320000D08EA28AA08AF28E6DB602D06D86FCD7CF
:103210000001010EA66F12000001D0514DE1010E18
:10322000D06FD15149E1010ED16F020EB65D0DE1B3
:10323000B1C0E9FFB2C0EAFFEE52EF6AB1C0E9FFE8
:10324000B2C0EAFFC80EEF6E37D0B60535E1C96BE4
:10325000A9C0E9FFAAC0EAFFEE52080EEF6EA9C0AE
:10326000E9FFAAC0EAFF020EE926000EEA22200EBC
:10327000EE6E040EED6EA9C0E9FFAAC0EAFF840E4F
:10328000EF6E010EC96FABC0E9FFACC0EAFFEE52B2
:10329000080EEF6EABC0E9FFACC0EAFF020EE926F4
:1032A000000EEA22200EEE6E040EED6EABC0E9FFBA
:1032B000ACC0EAFF800EEF6E12000001D26BD36B40
:1032C000020EB65D1AE1ABC0E9FFACC0EAFFEE52F8
:1032D000080EEF6EABC0E9FFACC0EAFF020EE926B4
:1032E000000EEA22280EEE6E040EED6EABC0E9FF72
:1032F000ACC0EAFFC80EEF6E1FD0BA510401265DC4
:103300000001BB510401275904E226C4BAF027C4C6
:10331000BBF0D1D8B1C0E9FFB2C0EAFF020EE92686
:10332000000EEA22280EEE6E040EED6EB1C0E9FF2B
:10333000B2C0EAFFC80EEF6E1200D9CFE6FFE1CFB0
:10334000D9FF020EE126000EDE6E040EDD6EFD0ECC
:10335000DB50E824166EFE0EDB50040DF3501624ED
:10336000040DF3CF14F0F4CF15F0D9CFE9FFDACF85
:10337000EAFF1450EE261550ED22DECFE9FFDDCF37
:10338000EAFFEF9EFD0EDB500FE1FE0EEA6ADB3432
:10339000FE0BEA36E96EAD0EE926000EEA22DECF1C
:1033A000EEFFDDCFEDFF0ED0FE0EEA6ADB34FE0B42
:1033B000EA36E96EB10EE926000EEA22DECFEEFF14
:1033C000DDCFEDFFDECFE9FFDDCFEAFFEF9CDECF03
:1033D000E9FFDDCFEAFF040EE926000EEA22EF8CBA
:1033E000020EE15C02E2E16AE552E16EE552E7CFEE
:1033F000D9FF12006D980001B9BF2BD0BEAF09D024
:10340000020EB66FD35101E158DF0001D16BD06BD2
:103410001FD0ABC0E9FFACC0EAFFEE52080EEF6E62
:10342000ABC0E9FFACC0EAFF020EE926000EEA22BB
:10343000200EEE6E040EED6EABC0E9FFACC0EAFFED
:103440008C0EEF6EB1C0E9FFB2C0EAFF840EEF6EE2
:1034500031D0040120AF0DD00001010EB66FD25162
:1034600001E12BDF0001D16BD06BCF5101E1D4DE44
:1034700021D00001020EB66FABC0E9FFACC0EAFF7D
:10348000EE52080EEF6EABC0E9FFACC0EAFF020ED1
:10349000E926000EEA22200EEE6E040EED6EABC0A1
:1034A000E9FFACC0EAFF840EEF6ED16BD06BCF5159
:1034B00001E1B2DE1200D9CFE6FFE1CFD9FFE6523B
:1034C000080EDF6E0001BA5D000EBB590BE2BAC0F8
:1034D000DFFFB55103E1010EB56F04D0B50502E180
:1034E000020EB56FDF50146E156A1450BA5DBA6FD4
:1034F0001550BB59BB6FB1C0E9FFB2C0EAFFEE5235
:10350000DFCFEFFF280EC36F040EC46FB9B119D01F
:10351000DF5016E0B7C0F6FFB8C0F7FFB72B000EBC
:10352000B8230800F550E66EC3C0E9FFC4C0EAFF47
:10353000C32B000EC423E552E750EF6EDF06E8D739
:1035400017D0DF5015E0B7C0E9FFB8C0EAFFB72BCE
:10355000000EB823EF50E66EC3C0E9FFC4C0EAFF17
:10356000C32B000EC423E552E750EF6EDF06E9D708
:10357000E552E552E7CFD9FF1200D9CFE6FFE1CF00
:10358000D9FF020EE126A9C0E9FFAAC0EAFFEE5268
:10359000EFCFDFFFDFCF14F014500001BF5D000E4E
:1035A000C05902E2BFC0DFFFDF50146E156A14502D
:1035B000BF5DBF6F1550C059C06F010EDB6ADF5091
:1035C000F36E010EDBCFF4FFF350F45C16E2010E54
:1035D000DB50EA6A280FE96E040EEA22EF50E66E2D
:1035E000BCC0E9FFBDC0EAFFBC2B000EBD23E55205
:1035F000E750EF6E010EDB2AE2D7000ED880BF55F0
:10360000000EC05528E2ABC0E9FFACC0EAFFEE52A5
:10361000080EEF6EABC0E9FFACC0EAFF020EE92670
:10362000000EEA22280EEE6E040EED6EA9C0E9FF30
:10363000AAC0EAFFEF50400B07E1ABC0E9FFACC006
:10364000EAFFC80EEF6E06D0ABC0E9FFACC0EAFFE0
:10365000880EEF6E28D0ABC0E9FFACC0EAFFEE5297
:10366000080EEF6EABC0E9FFACC0EAFF020EE92620
:10367000000EEA22200EEE6E040EED6EABC0E9FFE6
:10368000ACC0EAFF840EEF6EC151C21107E005D055
:10369000C2C0FAFF0001C151F96EFADF0001BE9FFE
:1036A000CF5101E1B9DD020EE15C02E2E16AE552CF
:1036B000E16EE552E7CFD9FF1200D9CFE6FFE1CFA7
:1036C000D9FFE6520001B98F010EE66EE66AE66A9E
:1036D000710EE66E0F0EE66EDCEC01F0146E050E58
:1036E000E15E1450200EE66EE66AE66A000EE66EB3
:1036F000040EE66EDCEC01F0146E050EE15E145073
:103700006D8CDF6A020EDF5C10E2DF50EA6ACA0FDE
:10371000E96E000EEA22EF6ADF50EA6ACC0FE96E2A
:10372000000EEA22EF6ADF2AEDD7010EE66EE66AA6
:10373000E66AA80EE66E000EE66EDCEC01F0146E92
:10374000050EE15E14506D9C0001080EB16F040E71
:10375000B26F000EA96F040EAA6FA9C0ABF0AAC089
:10376000ACF022C4A7F0A75103E1100EA66F13D04E
:10377000010EE66EE66AA70EE66E000EE66E010E1C
:10378000E66EE66A8FEC0EF0146E060EE15E1450E3
:103790000001200EA66FE552E552E7CFD9FF1200D7
:1037A000800E0401205D5BE10001C00EB96F0401D1
:1037B0002351030A34E0010A0EE0030A03E000018A
:1037C000B96B4DD00001100EB76F010EB86F120E1D
:1037D000BA6FBB6B44D02251F66EF76AD890F636BA
:1037E000F736CD0EF626010EF7220900F5CFB7F019
:1037F0000A00F5CFB8F0020E0001F76AB725F66EA1
:10380000B851F7220800F5CFBAF0030EF76AB725D2
:10381000F66EB851F7220800F5CFBBF020D0030EAA
:10382000225D1AE22251F66EF76AD890F636F73624
:10383000CF0EF626010EF7220900F5CFB7F00A00E9
:10384000F5CFB8F0B7C0F6FFB8C0F7FF0800F550E5
:103850000001BA6FBB6B02D00001B96B00D012003F
:10386000D9CFE6FFE1CFD9FF020EE1260401286B94
:10387000296B20511F0B020A12E0030A0DE0010A16
:1038800001E042D00001B98F040128810001C50583
:1038900002E10401288338D00001B98F35D000013E
:1038A000B98F040124BF10D024510F0BE96EEA6ACE
:1038B000D890E936EA36AD0EE926000EEA22EECFC0
:1038C000DEFFEDCFDDFF0FD024510F0BE96EEA6A6A
:1038D000D890E936EA36B10EE926000EEA22EECF9C
:1038E000DEFFEDCFDDFFDECFE9FFDDCFEAFFEF50FA
:1038F000800B09E0DECFE9FFDDCFEAFFEF50040BDC
:1039000002E0010E286F00D00001B9AF07D0280EE9
:10391000B76F040EB86FB981020EBA6F020EE15C88
:1039200002E2E16AE552E16EE552E7CFD9FF12000B
:1039300070A015D0A9C0E9FFAAC0EAFFEF50800827
:103940000DE1B1C0E9FFB2C0EAFFEF50840806E123
:10395000A9C0E9FFAAC0EAFF8C0EEF6E7090689ACA
:103960001200698468986D820001010EC66F000E16
:10397000E66EE66AE66EE66A750EE66EE66A8FEC5D
:103980000EF0146E060EE15E145012000001C66BBC
:10399000000EE66EE66AE66EE66A740EE66EE66AAB
:1039A0008FEC0EF0146E060EE15E14506D92699469
:1039B00068A402D06894FCD71200D9CFE6FFE1CF0B
:1039C000D9FFE65200012D0ECE6FFD0EC71553E153
:1039D0007E0EC715E8407F0B040DF3CFA9F0F4CF9E
:1039E000AAF0000EA927040EAA23A9C0ABF0AAC012
:1039F000ACF0AB75A9C0E9FFAAC0EAFFEF503C0BE1
:103A0000E842E8420D0835E1DF6A080EDF5C23E298
:103A1000A9C0E9FFAAC0EAFF020EE926000EEA22C9
:103A2000EE50EFCFEAFFE96EEF50E66EDF50EA6A44
:103A3000200FE96E040EEA22E552E750EF6EA9C0AE
:103A4000E9FFAAC0EAFF020EE926000EEA22EE2AEA
:103A5000EF22DF2ADAD7A9C0E9FFAAC0EAFF020EE7
:103A6000E926000EEA22200EEE6E040EED6E0DD851
:103A700001D03AD805D0FD0EC715040801E159D888
:103A8000E552E552E7CFD9FF12000001B56BCF6BCD
:103A9000D26BD36BC96BB66BB1C0E9FFB2C0EAFFA2
:103AA000EF9EB175B1C0E9FFB2C0EAFFEF9EB175FC
:103AB000ABC0E9FFACC0EAFFEF9EB96BBA6BBB6B62
:103AC000BE6BBF6BC06B8FD8000EE66EE66AE66E0B
:103AD000E66A030EE66EE66A8FEC0EF0146E060ED2
:103AE000E15E1450FAEF19F0020E0001B65D02E13A
:103AF00044DD1ED0B66BC9511AE1ABC0E9FFACC0C2
:103B0000EAFFEE52080EEF6EABC0E9FFACC0EAFF71
:103B1000020EE926000EEA22200EEE6E040EED6E75
:103B2000ABC0E9FFACC0EAFF8C0EEF6E01D0C96BF1
:103B30001200D9CFE6FFE1CFD9FFE652B1C0E9FFCD
:103B4000B2C0EAFFEF50400B01E0010EDF6E000152
:103B5000B175080EA65D09E122C46EFF6E5003E048
:103B6000100EA66F02D0040EA66FB60528E1B1C0F4
:103B7000E9FFB2C0EAFF020EE926000EEA22280E93
:103B8000EE6E040EED6E97DC020E0001B55D07E1EE
:103B9000B1C0E9FFB2C0EAFF840EEF6E0FD0DF5074
:103BA00007E1B1C0E9FFB2C0EAFFC80EEF6E06D070
:103BB000B1C0E9FFB2C0EAFF880EEF6E0FD0BEAF12
:103BC0000CD0C151C21107E005D0C2C0FAFF0001FC
:103BD000C151F96EFADF0001BE9FB66BE552E552A6
:103BE000E7CFD9FF120004012051600BE842E84200
:103BF000E842E842E842000901E058D021510C0AAD
:103C000054E00B0A43E00C0A35E0010A26E00B0AF7
:103C100022E0020A20E0030A1CE0080A10E0010A80
:103C20000CE00F0A08E0030A01E03FD00001B98F61
:103C3000080EA66F3BD0B4DD39D03FDD37D0000190
:103C4000A70EB76F000EB86FB981010EBA6FB98FAA
:103C50002DD006DE2BD02BD829D024510001B76FF0
:103C6000B86BA80EB727000EB823B981010EBA6F42
:103C7000B98F1CD00001B98F04012451EA6AA80F42
:103C8000E96E000EEA2222C4EFFF10D0000EE66EAD
:103C9000E66AE66EE66A020EE66EE66A8FEC0EF003
:103CA000146E060EE15E145001D000D01200D9CF80
:103CB000E6FFE1CFD9FF050EE1260401220510E160
:103CC00020511F0B00090CE10001B98F030E040104
:103CD000215D04E10001010EC56F02D00001C56B3A
:103CE0000401225101E020D120511F0B020801E004
:103CF0001BD124510F0B000901E116D124510F0BE8
:103D0000010801E211D1200E0001A65D01E00CD1F5
:103D1000B98F040124BF1AD024510F0BE96EEA6A4F
:103D2000D890E936EA36AD0EE926000EEA22EECF4B
:103D3000DEFFEDCFDDFF24510F0BEA6ACC0FE96EF9
:103D4000000EEA22020EEFCFDBFF19D024510F0B39
:103D5000E96EEA6AD890E936EA36B10EE926000E35
:103D6000EA22EECFDEFFEDCFDDFF24510F0BEA6A32
:103D7000CA0FE96E000EEA22020EEFCFDBFFD95028
:103D8000020FE96EDACFEAFFEF50010B03E1000EFC
:103D9000DF9401D0DF8424BF10D024510F0BE96ED3
:103DA000EA6AD890E936EA36AD0EE926000EEA2234
:103DB000DECFEEFFDDCFEDFF0FD024510F0BE96E0C
:103DC000EA6AD890E936EA36B10EE926000EEA2210
:103DD000DECFEEFFDDCFEDFF030E215D23E1DECF71
:103DE000E9FFDDCFEAFFEF50800B13E024BF09D0DD
:103DF00024510F0BEA6ACC0FE96E000EEA22EF8223
:103E000008D024510F0BEA6ACA0FE96E000EEA22AD
:103E1000EF82840E146EDECFE9FFDDCFEAFF14508F
:103E2000EF1282D0DF74DECFE9FFDDCFEAFFEF5083
:103E3000800B1BE0DECFE9FFDDCFEAFFEF9EDECF98
:103E4000E9FFDDCFEAFFEF8C020EE66EE66ADECF19
:103E5000E6FFDDCFE6FF050EE66EE66A8FEC0EF0BC
:103E6000146E060EE15E145005D0DECFE9FFDDCF03
:103E7000EAFFEF8CDF74D950020FE96EDACFEAFF68
:103E8000EF50020B07E1DECFE9FFDDCFEAFFEF5095
:103E9000800B2DE0040124BF09D024510F0BEA6AE6
:103EA000CC0FE96E000EEA22EF9208D024510F0BDE
:103EB000EA6ACA0FE96E000EEA22EF923B0E146E18
:103EC000DECFE9FFDDCFEAFF1450EF16020EE66EFB
:103ED000E66ADECFE6FFDDCFE6FF050EE66EE66AB8
:103EE0008FEC0EF0146E060EE15E145008D03B0EFF
:103EF000146EDECFE9FFDDCFEAFF1450EF160401A8
:103F000024510F0B156A700F146E0F0E1522030E3D
:103F100014C0DBFF040E15C0DBFF030EDBCFE9FF8F
:103F2000040EDBCFEAFFEF90050EE15C02E2E16AEE
:0C3F3000E552E16EE552E7CFD9FF120028
:020000040030CA
:0100000024DB
:010001000EF0
:010002003FBE
:010003001EDE
:010005008179
:010006008178
:010008000FE8
:01000900C036
:01000A000FE6
:01000B00E014
:01000C000FE4
:01000D0040B2
:00000001FF
